{
  "contractName": "A",
  "abi": [
    {
      "inputs": [
        {
          "internalType": "uint256",
          "name": "",
          "type": "uint256"
        }
      ],
      "name": "arr2",
      "outputs": [
        {
          "internalType": "uint256",
          "name": "num",
          "type": "uint256"
        },
        {
          "internalType": "string",
          "name": "name",
          "type": "string"
        }
      ],
      "stateMutability": "view",
      "type": "function",
      "constant": true
    },
    {
      "inputs": [],
      "name": "count",
      "outputs": [
        {
          "internalType": "uint256",
          "name": "",
          "type": "uint256"
        }
      ],
      "stateMutability": "view",
      "type": "function",
      "constant": true
    },
    {
      "inputs": [
        {
          "internalType": "string",
          "name": "_name",
          "type": "string"
        }
      ],
      "name": "Input",
      "outputs": [],
      "stateMutability": "nonpayable",
      "type": "function"
    }
  ],
  "bytecode": "0x608060405234801561001057600080fd5b50610855806100206000396000f3fe608060405234801561001057600080fd5b50600436106100415760003560e01c806306661abd14610046578063a57b115614610064578063edf0099b14610080575b600080fd5b61004e6100b1565b60405161005b9190610204565b60405180910390f35b61007e60048036038101906100799190610379565b6100b7565b005b61009a600480360381019061009591906103ee565b61012f565b6040516100a892919061049a565b60405180910390f35b60005481565b6001604051806040016040528060008081546100d2906104f9565b9190508190558152602001838152509080600181540180825580915050600190039060005260206000209060020201600090919091909150600082015181600001556020820151816001019081610129919061074d565b50505050565b6001818154811061013f57600080fd5b906000526020600020906002020160009150905080600001549080600101805461016890610570565b80601f016020809104026020016040519081016040528092919081815260200182805461019490610570565b80156101e15780601f106101b6576101008083540402835291602001916101e1565b820191906000526020600020905b8154815290600101906020018083116101c457829003601f168201915b5050505050905082565b6000819050919050565b6101fe816101eb565b82525050565b600060208201905061021960008301846101f5565b92915050565b6000604051905090565b600080fd5b600080fd5b600080fd5b600080fd5b6000601f19601f8301169050919050565b7f4e487b7100000000000000000000000000000000000000000000000000000000600052604160045260246000fd5b6102868261023d565b810181811067ffffffffffffffff821117156102a5576102a461024e565b5b80604052505050565b60006102b861021f565b90506102c4828261027d565b919050565b600067ffffffffffffffff8211156102e4576102e361024e565b5b6102ed8261023d565b9050602081019050919050565b82818337600083830152505050565b600061031c610317846102c9565b6102ae565b90508281526020810184848401111561033857610337610238565b5b6103438482856102fa565b509392505050565b600082601f8301126103605761035f610233565b5b8135610370848260208601610309565b91505092915050565b60006020828403121561038f5761038e610229565b5b600082013567ffffffffffffffff8111156103ad576103ac61022e565b5b6103b98482850161034b565b91505092915050565b6103cb816101eb565b81146103d657600080fd5b50565b6000813590506103e8816103c2565b92915050565b60006020828403121561040457610403610229565b5b6000610412848285016103d9565b91505092915050565b600081519050919050565b600082825260208201905092915050565b60005b8381101561045557808201518184015260208101905061043a565b60008484015250505050565b600061046c8261041b565b6104768185610426565b9350610486818560208601610437565b61048f8161023d565b840191505092915050565b60006040820190506104af60008301856101f5565b81810360208301526104c18184610461565b90509392505050565b7f4e487b7100000000000000000000000000000000000000000000000000000000600052601160045260246000fd5b6000610504826101eb565b91507fffffffffffffffffffffffffffffffffffffffffffffffffffffffffffffffff8203610536576105356104ca565b5b600182019050919050565b7f4e487b7100000000000000000000000000000000000000000000000000000000600052602260045260246000fd5b6000600282049050600182168061058857607f821691505b60208210810361059b5761059a610541565b5b50919050565b60008190508160005260206000209050919050565b60006020601f8301049050919050565b600082821b905092915050565b6000600883026106037fffffffffffffffffffffffffffffffffffffffffffffffffffffffffffffffff826105c6565b61060d86836105c6565b95508019841693508086168417925050509392505050565b6000819050919050565b600061064a610645610640846101eb565b610625565b6101eb565b9050919050565b6000819050919050565b6106648361062f565b61067861067082610651565b8484546105d3565b825550505050565b600090565b61068d610680565b61069881848461065b565b505050565b5b818110156106bc576106b1600082610685565b60018101905061069e565b5050565b601f821115610701576106d2816105a1565b6106db846105b6565b810160208510156106ea578190505b6106fe6106f6856105b6565b83018261069d565b50505b505050565b600082821c905092915050565b600061072460001984600802610706565b1980831691505092915050565b600061073d8383610713565b9150826002028217905092915050565b6107568261041b565b67ffffffffffffffff81111561076f5761076e61024e565b5b6107798254610570565b6107848282856106c0565b600060209050601f8311600181146107b757600084156107a5578287015190505b6107af8582610731565b865550610817565b601f1984166107c5866105a1565b60005b828110156107ed578489015182556001820191506020850194506020810190506107c8565b8683101561080a5784890151610806601f891682610713565b8355505b6001600288020188555050505b50505050505056fea264697066735822122070e3d475a7a64f464084be1650bdf2827f2fefb77dbcb63b2bcc452d86697ce664736f6c63430008130033",
  "immutableReferences": {},
  "source": "// SPDX-License-Identifier: MIT\r\n\r\npragma solidity ^0.8.19;\r\n\r\ncontract A {\r\n\tuint public count;\r\n\r\n\tstruct Arr {\r\n\t\tuint num;\r\n\t\tstring name;\r\n\t}\r\n\r\n\tArr[] public arr2;\r\n\r\n\tfunction Input(string memory _name) public {\r\n\t\tarr2.push(Arr(++count, _name));\r\n\t}\r\n\r\n}",
  "sourcePath": "C:\\Users\\kbg02\\Desktop\\ 4\\Solidity\\ErrorHandling\\truffle\\contracts\\a.sol",
  "compiler": {
    "name": "solc",
    "version": "0.8.19+commit.7dd6d404.Emscripten.clang"
  },
  "schemaVersion": "3.4.16",
  "updatedAt": "2024-01-23T07:35:04.043Z",
  "networkType": "ethereum",
  "devdoc": {
    "kind": "dev",
    "methods": {},
    "version": 1
  },
  "userdoc": {
    "kind": "user",
    "methods": {},
    "version": 1
  }
}